{
  "contractName": "SurveillanceSystem",
  "abi": [
    {
      "inputs": [],
      "stateMutability": "nonpayable",
      "type": "constructor"
    },
    {
      "anonymous": false,
      "inputs": [
        {
          "indexed": false,
          "internalType": "address",
          "name": "user",
          "type": "address"
        },
        {
          "indexed": false,
          "internalType": "string",
          "name": "fileHash",
          "type": "string"
        }
      ],
      "name": "AccessGranted",
      "type": "event"
    },
    {
      "anonymous": false,
      "inputs": [
        {
          "indexed": false,
          "internalType": "address",
          "name": "user",
          "type": "address"
        },
        {
          "indexed": false,
          "internalType": "string",
          "name": "fileHash",
          "type": "string"
        }
      ],
      "name": "AccessRevoked",
      "type": "event"
    },
    {
      "anonymous": false,
      "inputs": [
        {
          "indexed": false,
          "internalType": "string",
          "name": "fileHash",
          "type": "string"
        },
        {
          "indexed": false,
          "internalType": "string",
          "name": "cloudinaryUrl",
          "type": "string"
        },
        {
          "indexed": false,
          "internalType": "address",
          "name": "owner",
          "type": "address"
        }
      ],
      "name": "FileAdded",
      "type": "event"
    },
    {
      "inputs": [
        {
          "internalType": "string",
          "name": "",
          "type": "string"
        },
        {
          "internalType": "uint256",
          "name": "",
          "type": "uint256"
        }
      ],
      "name": "accessLogs",
      "outputs": [
        {
          "internalType": "address",
          "name": "user",
          "type": "address"
        },
        {
          "internalType": "uint256",
          "name": "timestamp",
          "type": "uint256"
        },
        {
          "internalType": "string",
          "name": "action",
          "type": "string"
        }
      ],
      "stateMutability": "view",
      "type": "function",
      "constant": true
    },
    {
      "inputs": [
        {
          "internalType": "address",
          "name": "",
          "type": "address"
        }
      ],
      "name": "authorizedUsers",
      "outputs": [
        {
          "internalType": "bool",
          "name": "",
          "type": "bool"
        }
      ],
      "stateMutability": "view",
      "type": "function",
      "constant": true
    },
    {
      "inputs": [
        {
          "internalType": "string",
          "name": "",
          "type": "string"
        }
      ],
      "name": "surveillance",
      "outputs": [
        {
          "internalType": "string",
          "name": "fileHash",
          "type": "string"
        },
        {
          "internalType": "string",
          "name": "cloudinaryUrl",
          "type": "string"
        },
        {
          "internalType": "uint256",
          "name": "timestamp",
          "type": "uint256"
        },
        {
          "internalType": "address",
          "name": "owner",
          "type": "address"
        },
        {
          "internalType": "bool",
          "name": "isPrivate",
          "type": "bool"
        }
      ],
      "stateMutability": "view",
      "type": "function",
      "constant": true
    },
    {
      "inputs": [
        {
          "internalType": "string",
          "name": "fileHash",
          "type": "string"
        },
        {
          "internalType": "string",
          "name": "cloudinaryUrl",
          "type": "string"
        },
        {
          "internalType": "bool",
          "name": "isPrivate",
          "type": "bool"
        }
      ],
      "name": "addFile",
      "outputs": [],
      "stateMutability": "nonpayable",
      "type": "function"
    },
    {
      "inputs": [
        {
          "internalType": "address",
          "name": "user",
          "type": "address"
        }
      ],
      "name": "grantAccess",
      "outputs": [],
      "stateMutability": "nonpayable",
      "type": "function"
    },
    {
      "inputs": [
        {
          "internalType": "address",
          "name": "user",
          "type": "address"
        }
      ],
      "name": "revokeAccess",
      "outputs": [],
      "stateMutability": "nonpayable",
      "type": "function"
    },
    {
      "inputs": [
        {
          "internalType": "string",
          "name": "fileHash",
          "type": "string"
        }
      ],
      "name": "getFileMetadata",
      "outputs": [
        {
          "components": [
            {
              "internalType": "string",
              "name": "fileHash",
              "type": "string"
            },
            {
              "internalType": "string",
              "name": "cloudinaryUrl",
              "type": "string"
            },
            {
              "internalType": "uint256",
              "name": "timestamp",
              "type": "uint256"
            },
            {
              "internalType": "address",
              "name": "owner",
              "type": "address"
            },
            {
              "internalType": "bool",
              "name": "isPrivate",
              "type": "bool"
            }
          ],
          "internalType": "struct SurveillanceSystem.Metadata",
          "name": "",
          "type": "tuple"
        }
      ],
      "stateMutability": "view",
      "type": "function",
      "constant": true
    },
    {
      "inputs": [
        {
          "internalType": "string",
          "name": "fileHash",
          "type": "string"
        }
      ],
      "name": "getAccessLogs",
      "outputs": [
        {
          "components": [
            {
              "internalType": "address",
              "name": "user",
              "type": "address"
            },
            {
              "internalType": "uint256",
              "name": "timestamp",
              "type": "uint256"
            },
            {
              "internalType": "string",
              "name": "action",
              "type": "string"
            }
          ],
          "internalType": "struct SurveillanceSystem.AccessLog[]",
          "name": "",
          "type": "tuple[]"
        }
      ],
      "stateMutability": "view",
      "type": "function",
      "constant": true
    }
  ],
  "bytecode": "0x608060405234801561001057600080fd5b50336000908152600260205260409020805460ff19166001179055610f9e8061003a6000396000f3fe608060405234801561001057600080fd5b50600436106100885760003560e01c80635e9913781161005b5780635e9913781461010b57806385e685311461011e5780639a9474a614610131578063e89ce5a11461015557610088565b80630ae5e7391461008d5780631828983a146100a25780631f985003146100cb5780634bc19d34146100eb575b600080fd5b6100a061009b366004610b2c565b610177565b005b6100b56100b0366004610b2c565b6101d3565b6040516100c29190610d4e565b60405180910390f35b6100de6100d9366004610b5a565b6101e8565b6040516100c29190610e79565b6100fe6100f9366004610b5a565b6103d8565b6040516100c29190610cc9565b6100a0610119366004610b95565b610537565b6100a061012c366004610b2c565b610722565b61014461013f366004610b5a565b61079b565b6040516100c2959493929190610d97565b610168610163366004610c0e565b6108f3565b6040516100c293929190610c99565b3360009081526002602052604090205460ff166101af5760405162461bcd60e51b81526004016101a690610e51565b60405180910390fd5b6001600160a01b03166000908152600260205260409020805460ff19166001179055565b60026020526000908152604090205460ff1681565b6101f06109d8565b6000826040516102009190610c7d565b9081526040519081900360200190206003015460ff600160a01b90910416158061023957503360009081526002602052604090205460ff165b6102555760405162461bcd60e51b81526004016101a690610de5565b6000826040516102659190610c7d565b90815260200160405180910390206040518060a001604052908160008201805461028e90610f17565b80601f01602080910402602001604051908101604052809291908181526020018280546102ba90610f17565b80156103075780601f106102dc57610100808354040283529160200191610307565b820191906000526020600020905b8154815290600101906020018083116102ea57829003601f168201915b5050505050815260200160018201805461032090610f17565b80601f016020809104026020016040519081016040528092919081815260200182805461034c90610f17565b80156103995780601f1061036e57610100808354040283529160200191610399565b820191906000526020600020905b81548152906001019060200180831161037c57829003601f168201915b5050509183525050600282015460208201526003909101546001600160a01b0381166040830152600160a01b900460ff16151560609091015292915050565b3360009081526002602052604090205460609060ff1661040a5760405162461bcd60e51b81526004016101a690610e51565b60018260405161041a9190610c7d565b9081526020016040518091039020805480602002602001604051908101604052809291908181526020016000905b8282101561052c576000848152602090819020604080516060810182526003860290920180546001600160a01b031683526001810154938301939093526002830180549293929184019161049b90610f17565b80601f01602080910402602001604051908101604052809291908181526020018280546104c790610f17565b80156105145780601f106104e957610100808354040283529160200191610514565b820191906000526020600020905b8154815290600101906020018083116104f757829003601f168201915b50505050508152505081526020019060010190610448565b505050509050919050565b3360009081526002602052604090205460ff166105665760405162461bcd60e51b81526004016101a690610e51565b6040805160a0810182528481526020810184905242818301523360608201528215156080820152905160009061059d908690610c7d565b908152602001604051809103902060008201518160000190805190602001906105c7929190610a12565b5060208281015180516105e09260018501920190610a12565b506040828101516002830155606080840151600393840180546080909601511515600160a01b0260ff60a01b196001600160a01b039093166001600160a01b03199097169690961791909116949094179093558051928301815233835242602080850191909152815180830183529283526210511160ea1b908301528281019190915251600190610672908690610c7d565b9081526040805160209281900383019020805460018082018355600092835291849020855160039092020180546001600160a01b0319166001600160a01b03909216919091178155848401519181019190915590830151805184936106de926002850192910190610a12565b5050507f0414f670022af6ef73e6fb34d55da346a7dfc68909a85254155361604088dd4084843360405161071493929190610d59565b60405180910390a150505050565b3360009081526002602052604090205460ff166107515760405162461bcd60e51b81526004016101a690610e51565b6001600160a01b03811633141561077a5760405162461bcd60e51b81526004016101a690610e1a565b6001600160a01b03166000908152600260205260409020805460ff19169055565b80516020818301810180516000825292820191909301209152805481906107c190610f17565b80601f01602080910402602001604051908101604052809291908181526020018280546107ed90610f17565b801561083a5780601f1061080f5761010080835404028352916020019161083a565b820191906000526020600020905b81548152906001019060200180831161081d57829003601f168201915b50505050509080600101805461084f90610f17565b80601f016020809104026020016040519081016040528092919081815260200182805461087b90610f17565b80156108c85780601f1061089d576101008083540402835291602001916108c8565b820191906000526020600020905b8154815290600101906020018083116108ab57829003601f168201915b5050505060028301546003909301549192916001600160a01b0381169150600160a01b900460ff1685565b8151602081840181018051600182529282019185019190912091905280548290811061091e57600080fd5b60009182526020909120600390910201805460018201546002830180546001600160a01b0390931695509093509061095590610f17565b80601f016020809104026020016040519081016040528092919081815260200182805461098190610f17565b80156109ce5780601f106109a3576101008083540402835291602001916109ce565b820191906000526020600020905b8154815290600101906020018083116109b157829003601f168201915b5050505050905083565b6040518060a0016040528060608152602001606081526020016000815260200160006001600160a01b031681526020016000151581525090565b828054610a1e90610f17565b90600052602060002090601f016020900481019282610a405760008555610a86565b82601f10610a5957805160ff1916838001178555610a86565b82800160010185558215610a86579182015b82811115610a86578251825591602001919060010190610a6b565b50610a92929150610a96565b5090565b5b80821115610a925760008155600101610a97565b600082601f830112610abb578081fd5b813567ffffffffffffffff80821115610ad657610ad6610f52565b604051601f8301601f191681016020018281118282101715610afa57610afa610f52565b604052828152848301602001861015610b11578384fd5b82602086016020830137918201602001929092529392505050565b600060208284031215610b3d578081fd5b81356001600160a01b0381168114610b53578182fd5b9392505050565b600060208284031215610b6b578081fd5b813567ffffffffffffffff811115610b81578182fd5b610b8d84828501610aab565b949350505050565b600080600060608486031215610ba9578182fd5b833567ffffffffffffffff80821115610bc0578384fd5b610bcc87838801610aab565b94506020860135915080821115610be1578384fd5b50610bee86828701610aab565b92505060408401358015158114610c03578182fd5b809150509250925092565b60008060408385031215610c20578182fd5b823567ffffffffffffffff811115610c36578283fd5b610c4285828601610aab565b95602094909401359450505050565b60008151808452610c69816020860160208601610ee7565b601f01601f19169290920160200192915050565b60008251610c8f818460208701610ee7565b9190910192915050565b600060018060a01b038516825283602083015260606040830152610cc06060830184610c51565b95945050505050565b60208082528251828201819052600091906040908185019080840286018301878501865b83811015610d4057888303603f19018552815180516001600160a01b0316845287810151888501528601516060878501819052610d2c81860183610c51565b968901969450505090860190600101610ced565b509098975050505050505050565b901515815260200190565b600060608252610d6c6060830186610c51565b8281036020840152610d7e8186610c51565b91505060018060a01b0383166040830152949350505050565b600060a08252610daa60a0830188610c51565b8281036020840152610dbc8188610c51565b604084019690965250506001600160a01b03929092166060830152151560809091015292915050565b6020808252818101527f4e6f7420617574686f72697a656420746f207669657720746869732066696c65604082015260600190565b60208082526018908201527f43616e6e6f74207265766f6b65206f776e206163636573730000000000000000604082015260600190565b6020808252600e908201526d139bdd08185d5d1a1bdc9a5e995960921b604082015260600190565b600060208252825160a06020840152610e9560c0840182610c51565b90506020840151601f19848303016040850152610eb28282610c51565b9150506040840151606084015260018060a01b0360608501511660808401526080840151151560a08401528091505092915050565b60005b83811015610f02578181015183820152602001610eea565b83811115610f11576000848401525b50505050565b600281046001821680610f2b57607f821691505b60208210811415610f4c57634e487b7160e01b600052602260045260246000fd5b50919050565b634e487b7160e01b600052604160045260246000fdfea2646970667358221220c9eb68fccc6b433ac0d764dd7467052bcfefffcdf5fc168850d5d69139a379aa64736f6c63430008000033",
  "immutableReferences": {},
  "source": "// SPDX-License-Identifier: MIT\npragma solidity ^0.8.0;\n\ncontract SurveillanceSystem {\n    struct Metadata {\n        string fileHash;\n        string cloudinaryUrl;\n        uint256 timestamp;\n        address owner;\n        bool isPrivate;\n    }\n\n    struct AccessLog {\n        address user;\n        uint256 timestamp;\n        string action;\n    }\n\n    mapping(string => Metadata) public surveillance;\n    mapping(string => AccessLog[]) public accessLogs;\n    mapping(address => bool) public authorizedUsers;\n\n    event FileAdded(string fileHash, string cloudinaryUrl, address owner);\n    event AccessGranted(address user, string fileHash);\n    event AccessRevoked(address user, string fileHash);\n\n    modifier onlyAuthorized() {\n        require(authorizedUsers[msg.sender], \"Not authorized\");\n        _;\n    }\n\n    constructor() {\n        authorizedUsers[msg.sender] = true;\n    }\n\n    function addFile(string memory fileHash, string memory cloudinaryUrl, bool isPrivate) \n        public \n        onlyAuthorized \n    {\n        surveillance[fileHash] = Metadata(\n            fileHash,\n            cloudinaryUrl,\n            block.timestamp,\n            msg.sender,\n            isPrivate\n        );\n\n        AccessLog memory log = AccessLog(\n            msg.sender,\n            block.timestamp,\n            \"ADD\"\n        );\n        accessLogs[fileHash].push(log);\n\n        emit FileAdded(fileHash, cloudinaryUrl, msg.sender);\n    }\n\n    function grantAccess(address user) public onlyAuthorized {\n        authorizedUsers[user] = true;\n    }\n\n    function revokeAccess(address user) public onlyAuthorized {\n        require(user != msg.sender, \"Cannot revoke own access\");\n        authorizedUsers[user] = false;\n    }\n\n    function getFileMetadata(string memory fileHash) \n        public \n        view \n        returns (Metadata memory) \n    {\n        require(\n            !surveillance[fileHash].isPrivate || authorizedUsers[msg.sender],\n            \"Not authorized to view this file\"\n        );\n        return surveillance[fileHash];\n    }\n\n    function getAccessLogs(string memory fileHash) \n        public \n        view \n        onlyAuthorized \n        returns (AccessLog[] memory) \n    {\n        return accessLogs[fileHash];\n    }\n} ",
  "sourcePath": "/Users/yashyadav/Desktop/BICASS/contracts/SurveillanceSystem.sol",
  "compiler": {
    "name": "solc",
    "version": "0.8.0+commit.c7dfd78e.Emscripten.clang"
  },
  "schemaVersion": "3.4.16",
  "updatedAt": "2025-04-23T06:55:31.245Z",
  "networkType": "ethereum",
  "devdoc": {
    "kind": "dev",
    "methods": {},
    "version": 1
  },
  "userdoc": {
    "kind": "user",
    "methods": {},
    "version": 1
  }
}